S00F000064656661756C742E7372656330
S11300000EC028C027C026C025C024C023C022C0DB
S113001021C020C020C01EC01DC01CC01BC0112494
S11300201FBECFE5D2E0DEBFCDBF10E0A0E6B0E05A
S1130030ECEAF1E002C005900D92A236B107D9F7BF
S113004020E0A2E6B0E001C01D92A636B207E1F7B7
S113005057D0AAC0D5CF1F920F920FB60F9211247A
S11300608F939F93809162008F5F8931C8F480934E
S1130070620096B380916100880F92FB992790F9F2
S1130080892B80936100811116C0809160008130BA
S113009069F09F918F910F900FBE0F901F9018954C
S11300A01092620081E080936500E3CF10926000BB
S11300B080936400EECF8F3F61F7809160008111DF
S11300C0E8CF81E080936000E4CF809163008111E8
S11300D00CC0C09A83EC99E00197F1F700C00000CE
S11300E0C09881E0809363000895C19A83EC99E0FD
S11300F00197F1F700C00000C198109263000895C1
S113010083E087BB94E098BB98E12EE00FB6F894A7
S1130110A89591BD0FBE21BD92E09ABD83BF8BE926
S113012089BD80E189BF80E090E024D080936300A2
S1130130823010F01092630085B7877E85BF85B743
S1130140806285BF789404C080916400811109C0E5
S11301508895809165008823B9F310926500A8956D
S1130160F3CF10926400B1DF6091630080E090E00F
S113017009D0EECFE199FECF9FBB8EBBE09A9927C1
S11301808DB30895262FE199FECF9FBB8EBBE09AD5
S113019001970DB2021639F01CBA2DBB0FB6F894B4
S10F01A0E29AE19A0FBE0895F894FFCF94
S10501AC01FF4D
S9030000FC
